{"contracts/StakingPool.sol":{"StakingPool":{"abi":[{"inputs":[{"internalType":"address","name":"_stakingToken","type":"address"},{"internalType":"address","name":"admin","type":"address"}],"stateMutability":"nonpayable","type":"constructor"},{"inputs":[],"name":"AccessControlBadConfirmation","type":"error"},{"inputs":[{"internalType":"address","name":"account","type":"address"},{"internalType":"bytes32","name":"neededRole","type":"bytes32"}],"name":"AccessControlUnauthorizedAccount","type":"error"},{"inputs":[],"name":"EnforcedPause","type":"error"},{"inputs":[],"name":"ExpectedPause","type":"error"},{"inputs":[],"name":"ReentrancyGuardReentrantCall","type":"error"},{"anonymous":false,"inputs":[{"indexed":false,"internalType":"address","name":"account","type":"address"}],"name":"Paused","type":"event"},{"anonymous":false,"inputs":[{"indexed":true,"internalType":"address","name":"user","type":"address"},{"indexed":false,"internalType":"uint256","name":"points","type":"uint256"}],"name":"PointsUpdated","type":"event"},{"anonymous":false,"inputs":[{"indexed":false,"internalType":"uint256","name":"reward","type":"uint256"}],"name":"RewardAdded","type":"event"},{"anonymous":false,"inputs":[{"indexed":true,"internalType":"address","name":"user","type":"address"},{"indexed":false,"internalType":"uint256","name":"reward","type":"uint256"}],"name":"RewardPaid","type":"event"},{"anonymous":false,"inputs":[{"indexed":true,"internalType":"bytes32","name":"role","type":"bytes32"},{"indexed":true,"internalType":"bytes32","name":"previousAdminRole","type":"bytes32"},{"indexed":true,"internalType":"bytes32","name":"newAdminRole","type":"bytes32"}],"name":"RoleAdminChanged","type":"event"},{"anonymous":false,"inputs":[{"indexed":true,"internalType":"bytes32","name":"role","type":"bytes32"},{"indexed":true,"internalType":"address","name":"account","type":"address"},{"indexed":true,"internalType":"address","name":"sender","type":"address"}],"name":"RoleGranted","type":"event"},{"anonymous":false,"inputs":[{"indexed":true,"internalType":"bytes32","name":"role","type":"bytes32"},{"indexed":true,"internalType":"address","name":"account","type":"address"},{"indexed":true,"internalType":"address","name":"sender","type":"address"}],"name":"RoleRevoked","type":"event"},{"anonymous":false,"inputs":[{"indexed":true,"internalType":"address","name":"user","type":"address"},{"indexed":false,"internalType":"uint256","name":"amount","type":"uint256"}],"name":"Staked","type":"event"},{"anonymous":false,"inputs":[{"indexed":false,"internalType":"address","name":"account","type":"address"}],"name":"Unpaused","type":"event"},{"anonymous":false,"inputs":[{"indexed":true,"internalType":"address","name":"user","type":"address"},{"indexed":false,"internalType":"uint256","name":"amount","type":"uint256"}],"name":"Withdrawn","type":"event"},{"inputs":[],"name":"DEFAULT_ADMIN_ROLE","outputs":[{"internalType":"bytes32","name":"","type":"bytes32"}],"stateMutability":"view","type":"function"},{"inputs":[],"name":"DEPOSITOR_ROLE","outputs":[{"internalType":"bytes32","name":"","type":"bytes32"}],"stateMutability":"view","type":"function"},{"inputs":[],"name":"MAINTAINER_ROLE","outputs":[{"internalType":"bytes32","name":"","type":"bytes32"}],"stateMutability":"view","type":"function"},{"inputs":[],"name":"POINTS_MULTIPLIER","outputs":[{"internalType":"uint256","name":"","type":"uint256"}],"stateMutability":"view","type":"function"},{"inputs":[{"internalType":"address","name":"","type":"address"}],"name":"balanceOf","outputs":[{"internalType":"uint256","name":"","type":"uint256"}],"stateMutability":"view","type":"function"},{"inputs":[{"internalType":"uint256","name":"amount","type":"uint256"}],"name":"depositRewards","outputs":[],"stateMutability":"nonpayable","type":"function"},{"inputs":[{"internalType":"address","name":"account","type":"address"}],"name":"earned","outputs":[{"internalType":"uint256","name":"","type":"uint256"}],"stateMutability":"view","type":"function"},{"inputs":[],"name":"exit","outputs":[],"stateMutability":"nonpayable","type":"function"},{"inputs":[],"name":"getReward","outputs":[],"stateMutability":"nonpayable","type":"function"},{"inputs":[{"internalType":"bytes32","name":"role","type":"bytes32"}],"name":"getRoleAdmin","outputs":[{"internalType":"bytes32","name":"","type":"bytes32"}],"stateMutability":"view","type":"function"},{"inputs":[{"internalType":"bytes32","name":"role","type":"bytes32"},{"internalType":"address","name":"account","type":"address"}],"name":"grantRole","outputs":[],"stateMutability":"nonpayable","type":"function"},{"inputs":[{"internalType":"bytes32","name":"role","type":"bytes32"},{"internalType":"address","name":"account","type":"address"}],"name":"hasRole","outputs":[{"internalType":"bool","name":"","type":"bool"}],"stateMutability":"view","type":"function"},{"inputs":[],"name":"lastUpdateTime","outputs":[{"internalType":"uint256","name":"","type":"uint256"}],"stateMutability":"view","type":"function"},{"inputs":[{"internalType":"uint256","name":"reward","type":"uint256"}],"name":"notifyRewardAmount","outputs":[],"stateMutability":"nonpayable","type":"function"},{"inputs":[],"name":"pause","outputs":[],"stateMutability":"nonpayable","type":"function"},{"inputs":[],"name":"paused","outputs":[{"internalType":"bool","name":"","type":"bool"}],"stateMutability":"view","type":"function"},{"inputs":[{"internalType":"bytes32","name":"role","type":"bytes32"},{"internalType":"address","name":"callerConfirmation","type":"address"}],"name":"renounceRole","outputs":[],"stateMutability":"nonpayable","type":"function"},{"inputs":[{"internalType":"bytes32","name":"role","type":"bytes32"},{"internalType":"address","name":"account","type":"address"}],"name":"revokeRole","outputs":[],"stateMutability":"nonpayable","type":"function"},{"inputs":[],"name":"rewardPerToken","outputs":[{"internalType":"uint256","name":"","type":"uint256"}],"stateMutability":"view","type":"function"},{"inputs":[],"name":"rewardPerTokenStored","outputs":[{"internalType":"uint256","name":"","type":"uint256"}],"stateMutability":"view","type":"function"},{"inputs":[],"name":"rewardRate","outputs":[{"internalType":"uint256","name":"","type":"uint256"}],"stateMutability":"view","type":"function"},{"inputs":[{"internalType":"address","name":"","type":"address"}],"name":"rewards","outputs":[{"internalType":"uint256","name":"","type":"uint256"}],"stateMutability":"view","type":"function"},{"inputs":[{"internalType":"uint256","name":"amount","type":"uint256"}],"name":"stake","outputs":[],"stateMutability":"nonpayable","type":"function"},{"inputs":[{"internalType":"address","name":"","type":"address"}],"name":"stakingTime","outputs":[{"internalType":"uint256","name":"","type":"uint256"}],"stateMutability":"view","type":"function"},{"inputs":[],"name":"stakingToken","outputs":[{"internalType":"contract IERC20","name":"","type":"address"}],"stateMutability":"view","type":"function"},{"inputs":[{"internalType":"bytes4","name":"interfaceId","type":"bytes4"}],"name":"supportsInterface","outputs":[{"internalType":"bool","name":"","type":"bool"}],"stateMutability":"view","type":"function"},{"inputs":[],"name":"totalSupply","outputs":[{"internalType":"uint256","name":"","type":"uint256"}],"stateMutability":"view","type":"function"},{"inputs":[],"name":"unpause","outputs":[],"stateMutability":"nonpayable","type":"function"},{"inputs":[{"internalType":"address","name":"","type":"address"}],"name":"userPoints","outputs":[{"internalType":"uint256","name":"","type":"uint256"}],"stateMutability":"view","type":"function"},{"inputs":[{"internalType":"address","name":"","type":"address"}],"name":"userRewardPerTokenPaid","outputs":[{"internalType":"uint256","name":"","type":"uint256"}],"stateMutability":"view","type":"function"},{"inputs":[{"internalType":"uint256","name":"amount","type":"uint256"}],"name":"withdraw","outputs":[],"stateMutability":"nonpayable","type":"function"}],"evm":{"bytecode":{"linkReferences":{},"object":"60a06040523480156200001157600080fd5b506040516200157638038062001576833981016040819052620000349162000190565b60016000818155815460ff19169091556001600160a01b0383166080526200005d9082620000c0565b506200008a7f339759585899103d2ace64958e37e18ccb0504652c81d4a1b8aa80fe2126ab9582620000c0565b50620000b77f8f4f2da22e8ac8f11e15f9fc141cddbb5deea8800186560abb6e68c5496619a982620000c0565b505050620001c8565b60008281526002602090815260408083206001600160a01b038516845290915281205460ff16620001695760008381526002602090815260408083206001600160a01b03861684529091529020805460ff19166001179055620001203390565b6001600160a01b0316826001600160a01b0316847f2f8788117e7eff1d82e926ec794901d17c78024a50270940304540a733656f0d60405160405180910390a45060016200016d565b5060005b92915050565b80516001600160a01b03811681146200018b57600080fd5b919050565b60008060408385031215620001a457600080fd5b620001af8362000173565b9150620001bf6020840162000173565b90509250929050565b608051611376620002006000396000818161032c0152818161068b0152818161096701528181610b340152610d1201526113766000f3fe608060405234801561001057600080fd5b50600436106101e45760003560e01c80637b0a47ee1161010f578063a694fc3a116100a2578063df136d6511610071578063df136d6514610432578063e9fad8ee1461043b578063f50ddbc714610443578063f87422541461046357600080fd5b8063a694fc3a146103fb578063c8f33c911461040e578063cd3daf9d14610417578063d547741f1461041f57600080fd5b80638f2203f6116100de5780638f2203f6146103aa57806391d14854146103b9578063a217fddf146103cc578063a3b0b5a3146103d457600080fd5b80637b0a47ee146103665780638456cb591461036f5780638b876347146103775780638bdf67f21461039757600080fd5b806336568abe11610187578063583d42fd11610156578063583d42fd146102dc5780635c975abb146102fc57806370a082311461030757806372f702f31461032757600080fd5b806336568abe146102a65780633c6b16ab146102b95780633d18b912146102cc5780633f4ba83a146102d457600080fd5b806318160ddd116101c357806318160ddd14610252578063248a9ca31461025b5780632e1a7d4d1461027e5780632f2ff15d1461029357600080fd5b80628cc262146101e957806301ffc9a71461020f5780630700037d14610232575b600080fd5b6101fc6101f73660046111ef565b61048a565b6040519081526020015b60405180910390f35b61022261021d366004611211565b610507565b6040519015158152602001610206565b6101fc6102403660046111ef565b60076020526000908152604090205481565b6101fc600b5481565b6101fc61026936600461123b565b60009081526002602052604090206001015490565b61029161028c36600461123b565b61053c565b005b6102916102a1366004611254565b610769565b6102916102b4366004611254565b610794565b6102916102c736600461123b565b6107cc565b6102916108bd565b610291610a34565b6101fc6102ea3660046111ef565b60096020526000908152604090205481565b60015460ff16610222565b6101fc6103153660046111ef565b60086020526000908152604090205481565b61034e7f000000000000000000000000000000000000000000000000000000000000000081565b6040516001600160a01b039091168152602001610206565b6101fc60035481565b610291610a66565b6101fc6103853660046111ef565b60066020526000908152604090205481565b6102916103a536600461123b565b610a98565b6101fc670de0b6b3a764000081565b6102226103c7366004611254565b610bc9565b6101fc600081565b6101fc7f8f4f2da22e8ac8f11e15f9fc141cddbb5deea8800186560abb6e68c5496619a981565b61029161040936600461123b565b610bf4565b6101fc60045481565b6101fc610dcd565b61029161042d366004611254565b610e2d565b6101fc60055481565b610291610e52565b6101fc6104513660046111ef565b600a6020526000908152604090205481565b6101fc7f339759585899103d2ace64958e37e18ccb0504652c81d4a1b8aa80fe2126ab9581565b6001600160a01b0381166000908152600760209081526040808320546006909252822054670de0b6b3a7640000906104c0610dcd565b6104ca9190611296565b6001600160a01b0385166000908152600860205260409020546104ed91906112a9565b6104f791906112c0565b61050191906112e2565b92915050565b60006001600160e01b03198216637965db0b60e01b148061050157506301ffc9a760e01b6001600160e01b0319831614610501565b610544610e73565b3361054d610dcd565b600555426004556001600160a01b038116156105985761056c8161048a565b6001600160a01b0382166000908152600760209081526040808320939093556005546006909152919020555b600082116105e15760405162461bcd60e51b8152602060048201526011602482015270043616e6e6f74207769746864726177203607c1b60448201526064015b60405180910390fd5b336000908152600860205260409020548211156106345760405162461bcd60e51b8152602060048201526011602482015270139bdd08195b9bdd59da081cdd185ad959607a1b60448201526064016105d8565b81600b60008282546106469190611296565b9091555050336000908152600860205260408120805484929061066a908490611296565b909155505060405163a9059cbb60e01b8152336004820152602481018390527f00000000000000000000000000000000000000000000000000000000000000006001600160a01b03169063a9059cbb906044016020604051808303816000875af11580156106dc573d6000803e3d6000fd5b505050506040513d601f19601f8201168201806040525081019061070091906112f5565b61071c5760405162461bcd60e51b81526004016105d890611317565b60405182815233907f7084f5476618d8e60b11ef0d7d3f06914655adb8793e28ff7f018d4c76d505d5906020015b60405180910390a261075b33610e9d565b506107666001600055565b50565b60008281526002602052604090206001015461078481610f50565b61078e8383610f5a565b50505050565b6001600160a01b03811633146107bd5760405163334bd91960e11b815260040160405180910390fd5b6107c78282610fee565b505050565b60006107d781610f50565b60006107e1610dcd565b600555426004556001600160a01b0381161561082c576108008161048a565b6001600160a01b0382166000908152600760209081526040808320939093556005546006909152919020555b6000831161087c5760405162461bcd60e51b815260206004820152601d60248201527f526577617264206d7573742062652067726561746572207468616e203000000060448201526064016105d8565b6003839055426004556040518381527fde88a922e0d3b88b24e9623efeb464919c6bf9f66857a65e2bfcf2ce87a9433d9060200160405180910390a1505050565b6108c5610e73565b336108ce610dcd565b600555426004556001600160a01b03811615610919576108ed8161048a565b6001600160a01b0382166000908152600760209081526040808320939093556005546006909152919020555b336000908152600760205260409020548015610a265733600081815260076020526040808220919091555163a9059cbb60e01b81526004810191909152602481018290526001600160a01b037f0000000000000000000000000000000000000000000000000000000000000000169063a9059cbb906044016020604051808303816000875af11580156109b0573d6000803e3d6000fd5b505050506040513d601f19601f820116820180604052508101906109d491906112f5565b6109f05760405162461bcd60e51b81526004016105d890611317565b60405181815233907fe2403640ba68fed3a2f88b7557551d1993f84b99bb10ff833f0cf8db0c5e04869060200160405180910390a25b5050610a326001600055565b565b7f339759585899103d2ace64958e37e18ccb0504652c81d4a1b8aa80fe2126ab95610a5e81610f50565b61076661105b565b7f339759585899103d2ace64958e37e18ccb0504652c81d4a1b8aa80fe2126ab95610a9081610f50565b6107666110ad565b7f8f4f2da22e8ac8f11e15f9fc141cddbb5deea8800186560abb6e68c5496619a9610ac281610f50565b60008211610b125760405162461bcd60e51b815260206004820152601d60248201527f416d6f756e74206d7573742062652067726561746572207468616e203000000060448201526064016105d8565b6040516323b872dd60e01b8152336004820152306024820152604481018390527f00000000000000000000000000000000000000000000000000000000000000006001600160a01b0316906323b872dd906064016020604051808303816000875af1158015610b85573d6000803e3d6000fd5b505050506040513d601f19601f82011682018060405250810190610ba991906112f5565b610bc55760405162461bcd60e51b81526004016105d890611317565b5050565b60009182526002602090815260408084206001600160a01b0393909316845291905290205460ff1690565b610bfc610e73565b610c046110e8565b33610c0d610dcd565b600555426004556001600160a01b03811615610c5857610c2c8161048a565b6001600160a01b0382166000908152600760209081526040808320939093556005546006909152919020555b60008211610c995760405162461bcd60e51b815260206004820152600e60248201526d043616e6e6f74207374616b6520360941b60448201526064016105d8565b81600b6000828254610cab91906112e2565b90915550503360009081526008602052604081208054849290610ccf9084906112e2565b90915550503360008181526009602052604090819020429055516323b872dd60e01b81526004810191909152306024820152604481018390526001600160a01b037f000000000000000000000000000000000000000000000000000000000000000016906323b872dd906064016020604051808303816000875af1158015610d5b573d6000803e3d6000fd5b505050506040513d601f19601f82011682018060405250810190610d7f91906112f5565b610d9b5760405162461bcd60e51b81526004016105d890611317565b60405182815233907f9e71bc8eea02a63969f509818f2dafb9254532904319f9dbda79b67bd34a5f3d9060200161074a565b6000600b54600003610de0575060055490565b600b54670de0b6b3a764000060035460045442610dfd9190611296565b610e0791906112a9565b610e1191906112a9565b610e1b91906112c0565b600554610e2891906112e2565b905090565b600082815260026020526040902060010154610e4881610f50565b61078e8383610fee565b33600090815260086020526040902054610e6b9061053c565b610a326108bd565b600260005403610e9657604051633ee5aeb560e01b815260040160405180910390fd5b6002600055565b6001600160a01b0381166000908152600860209081526040808320546009909252822054909190610ece9042611296565b90506000610ee7610ee262015180846112c0565b61110c565b610ef190846112a9565b6001600160a01b0385166000818152600a60205260409081902083905551919250907fa05f39e6d8d4e060324edb900f0f5909de621fd93f19ccf65ba74e5965c98c3690610f429084815260200190565b60405180910390a250505050565b610766813361117c565b6000610f668383610bc9565b610fe65760008381526002602090815260408083206001600160a01b03861684529091529020805460ff19166001179055610f9e3390565b6001600160a01b0316826001600160a01b0316847f2f8788117e7eff1d82e926ec794901d17c78024a50270940304540a733656f0d60405160405180910390a4506001610501565b506000610501565b6000610ffa8383610bc9565b15610fe65760008381526002602090815260408083206001600160a01b0386168085529252808320805460ff1916905551339286917ff6391f5c32d9c69d2a47ea670b442974b53935d1edc7fd64eb21e047a839171b9190a4506001610501565b6110636111b5565b6001805460ff191690557f5db9ee0a495bf2e6ff9c91a7834c1ba4fdd244a5e8aa4e537bd38aeae4b073aa335b6040516001600160a01b03909116815260200160405180910390a1565b6110b56110e8565b6001805460ff1916811790557f62e78cea01bee320cd4e420270b5ea74000d11b0c9f74754ebdbfc544b05a25833611090565b60015460ff1615610a325760405163d93c066560e01b815260040160405180910390fd5b6000600382111561116d57508060006111266002836112c0565b6111319060016112e2565b90505b818110156111675790508060028161114c81866112c0565b61115691906112e2565b61116091906112c0565b9050611134565b50919050565b8115611177575060015b919050565b6111868282610bc9565b610bc55760405163e2517d3f60e01b81526001600160a01b0382166004820152602481018390526044016105d8565b60015460ff16610a3257604051638dfc202b60e01b815260040160405180910390fd5b80356001600160a01b038116811461117757600080fd5b60006020828403121561120157600080fd5b61120a826111d8565b9392505050565b60006020828403121561122357600080fd5b81356001600160e01b03198116811461120a57600080fd5b60006020828403121561124d57600080fd5b5035919050565b6000806040838503121561126757600080fd5b82359150611277602084016111d8565b90509250929050565b634e487b7160e01b600052601160045260246000fd5b8181038181111561050157610501611280565b808202811582820484141761050157610501611280565b6000826112dd57634e487b7160e01b600052601260045260246000fd5b500490565b8082018082111561050157610501611280565b60006020828403121561130757600080fd5b8151801515811461120a57600080fd5b6020808252600f908201526e151c985b9cd9995c8819985a5b1959608a1b60408201526060019056fea2646970667358221220967b7daef1d55776d14afbf65aaaf1780bb27435664ba88be7ce0306b7adbc5a64736f6c63430008180033","opcodes":"PUSH1 0xA0 PUSH1 0x40 MSTORE CALLVALUE DUP1 ISZERO PUSH3 0x11 JUMPI PUSH1 0x0 DUP1 REVERT JUMPDEST POP PUSH1 0x40 MLOAD PUSH3 0x1576 CODESIZE SUB DUP1 PUSH3 0x1576 DUP4 CODECOPY DUP2 ADD PUSH1 0x40 DUP2 SWAP1 MSTORE PUSH3 0x34 SWAP2 PUSH3 0x190 JUMP JUMPDEST PUSH1 0x1 PUSH1 0x0 DUP2 DUP2 SSTORE DUP2 SLOAD PUSH1 0xFF NOT AND SWAP1 SWAP2 SSTORE PUSH1 0x1 PUSH1 0x1 PUSH1 0xA0 SHL SUB DUP4 AND PUSH1 0x80 MSTORE PUSH3 0x5D SWAP1 DUP3 PUSH3 0xC0 JUMP JUMPDEST POP PUSH3 0x8A PUSH32 0x339759585899103D2ACE64958E37E18CCB0504652C81D4A1B8AA80FE2126AB95 DUP3 PUSH3 0xC0 JUMP JUMPDEST POP PUSH3 0xB7 PUSH32 0x8F4F2DA22E8AC8F11E15F9FC141CDDBB5DEEA8800186560ABB6E68C5496619A9 DUP3 PUSH3 0xC0 JUMP JUMPDEST POP POP POP PUSH3 0x1C8 JUMP JUMPDEST PUSH1 0x0 DUP3 DUP2 MSTORE PUSH1 0x2 PUSH1 0x20 SWAP1 DUP2 MSTORE PUSH1 0x40 DUP1 DUP4 KECCAK256 PUSH1 0x1 PUSH1 0x1 PUSH1 0xA0 SHL SUB DUP6 AND DUP5 MSTORE SWAP1 SWAP2 MSTORE DUP2 KECCAK256 SLOAD PUSH1 0xFF AND PUSH3 0x169 JUMPI PUSH1 0x0 DUP4 DUP2 MSTORE PUSH1 0x2 PUSH1 0x20 SWAP1 DUP2 MSTORE PUSH1 0x40 DUP1 DUP4 KECCAK256 PUSH1 0x1 PUSH1 0x1 PUSH1 0xA0 SHL SUB DUP7 AND DUP5 MSTORE SWAP1 SWAP2 MSTORE SWAP1 KECCAK256 DUP1 SLOAD PUSH1 0xFF NOT AND PUSH1 0x1 OR SWAP1 SSTORE PUSH3 0x120 CALLER SWAP1 JUMP JUMPDEST PUSH1 0x1 PUSH1 0x1 PUSH1 0xA0 SHL SUB AND DUP3 PUSH1 0x1 PUSH1 0x1 PUSH1 0xA0 SHL SUB AND DUP5 PUSH32 0x2F8788117E7EFF1D82E926EC794901D17C78024A50270940304540A733656F0D PUSH1 0x40 MLOAD PUSH1 0x40 MLOAD DUP1 SWAP2 SUB SWAP1 LOG4 POP PUSH1 0x1 PUSH3 0x16D JUMP JUMPDEST POP PUSH1 0x0 JUMPDEST SWAP3 SWAP2 POP POP JUMP JUMPDEST DUP1 MLOAD PUSH1 0x1 PUSH1 0x1 PUSH1 0xA0 SHL SUB DUP2 AND DUP2 EQ PUSH3 0x18B JUMPI PUSH1 0x0 DUP1 REVERT JUMPDEST SWAP2 SWAP1 POP JUMP JUMPDEST PUSH1 0x0 DUP1 PUSH1 0x40 DUP4 DUP6 SUB SLT ISZERO PUSH3 0x1A4 JUMPI PUSH1 0x0 DUP1 REVERT JUMPDEST PUSH3 0x1AF DUP4 PUSH3 0x173 JUMP JUMPDEST SWAP2 POP PUSH3 0x1BF PUSH1 0x20 DUP5 ADD PUSH3 0x173 JUMP JUMPDEST SWAP1 POP SWAP3 POP SWAP3 SWAP1 POP JUMP JUMPDEST PUSH1 0x80 MLOAD PUSH2 0x1376 PUSH3 0x200 PUSH1 0x0 CODECOPY PUSH1 0x0 DUP2 DUP2 PUSH2 0x32C ADD MSTORE DUP2 DUP2 PUSH2 0x68B ADD MSTORE DUP2 DUP2 PUSH2 0x967 ADD MSTORE DUP2 DUP2 PUSH2 0xB34 ADD MSTORE PUSH2 0xD12 ADD MSTORE PUSH2 0x1376 PUSH1 0x0 RETURN INVALID PUSH1 0x80 PUSH1 0x40 MSTORE CALLVALUE DUP1 ISZERO PUSH2 0x10 JUMPI PUSH1 0x0 DUP1 REVERT JUMPDEST POP PUSH1 0x4 CALLDATASIZE LT PUSH2 0x1E4 JUMPI PUSH1 0x0 CALLDATALOAD PUSH1 0xE0 SHR DUP1 PUSH4 0x7B0A47EE GT PUSH2 0x10F JUMPI DUP1 PUSH4 0xA694FC3A GT PUSH2 0xA2 JUMPI DUP1 PUSH4 0xDF136D65 GT PUSH2 0x71 JUMPI DUP1 PUSH4 0xDF136D65 EQ PUSH2 0x432 JUMPI DUP1 PUSH4 0xE9FAD8EE EQ PUSH2 0x43B JUMPI DUP1 PUSH4 0xF50DDBC7 EQ PUSH2 0x443 JUMPI DUP1 PUSH4 0xF8742254 EQ PUSH2 0x463 JUMPI PUSH1 0x0 DUP1 REVERT JUMPDEST DUP1 PUSH4 0xA694FC3A EQ PUSH2 0x3FB JUMPI DUP1 PUSH4 0xC8F33C91 EQ PUSH2 0x40E JUMPI DUP1 PUSH4 0xCD3DAF9D EQ PUSH2 0x417 JUMPI DUP1 PUSH4 0xD547741F EQ PUSH2 0x41F JUMPI PUSH1 0x0 DUP1 REVERT JUMPDEST DUP1 PUSH4 0x8F2203F6 GT PUSH2 0xDE JUMPI DUP1 PUSH4 0x8F2203F6 EQ PUSH2 0x3AA JUMPI DUP1 PUSH4 0x91D14854 EQ PUSH2 0x3B9 JUMPI DUP1 PUSH4 0xA217FDDF EQ PUSH2 0x3CC JUMPI DUP1 PUSH4 0xA3B0B5A3 EQ PUSH2 0x3D4 JUMPI PUSH1 0x0 DUP1 REVERT JUMPDEST DUP1 PUSH4 0x7B0A47EE EQ PUSH2 0x366 JUMPI DUP1 PUSH4 0x8456CB59 EQ PUSH2 0x36F JUMPI DUP1 PUSH4 0x8B876347 EQ PUSH2 0x377 JUMPI DUP1 PUSH4 0x8BDF67F2 EQ PUSH2 0x397 JUMPI PUSH1 0x0 DUP1 REVERT JUMPDEST DUP1 PUSH4 0x36568ABE GT PUSH2 0x187 JUMPI DUP1 PUSH4 0x583D42FD GT PUSH2 0x156 JUMPI DUP1 PUSH4 0x583D42FD EQ PUSH2 0x2DC JUMPI DUP1 PUSH4 0x5C975ABB EQ PUSH2 0x2FC JUMPI DUP1 PUSH4 0x70A08231 EQ PUSH2 0x307 JUMPI DUP1 PUSH4 0x72F702F3 EQ PUSH2 0x327 JUMPI PUSH1 0x0 DUP1 REVERT JUMPDEST DUP1 PUSH4 0x36568ABE EQ PUSH2 0x2A6 JUMPI DUP1 PUSH4 0x3C6B16AB EQ PUSH2 0x2B9 JUMPI DUP1 PUSH4 0x3D18B912 EQ PUSH2 0x2CC JUMPI DUP1 PUSH4 0x3F4BA83A EQ PUSH2 0x2D4 JUMPI PUSH1 0x0 DUP1 REVERT JUMPDEST DUP1 PUSH4 0x18160DDD GT PUSH2 0x1C3 JUMPI DUP1 PUSH4 0x18160DDD EQ PUSH2 0x252 JUMPI DUP1 PUSH4 0x248A9CA3 EQ PUSH2 0x25B JUMPI DUP1 PUSH4 0x2E1A7D4D EQ PUSH2 0x27E JUMPI DUP1 PUSH4 0x2F2FF15D EQ PUSH2 0x293 JUMPI PUSH1 0x0 DUP1 REVERT JUMPDEST DUP1 PUSH3 0x8CC262 EQ PUSH2 0x1E9 JUMPI DUP1 PUSH4 0x1FFC9A7 EQ PUSH2 0x20F JUMPI DUP1 PUSH4 0x700037D EQ PUSH2 0x232 JUMPI JUMPDEST PUSH1 0x0 DUP1 REVERT JUMPDEST PUSH2 0x1FC PUSH2 0x1F7 CALLDATASIZE PUSH1 0x4 PUSH2 0x11EF JUMP JUMPDEST PUSH2 0x48A JUMP JUMPDEST PUSH1 0x40 MLOAD SWAP1 DUP2 MSTORE PUSH1 0x20 ADD JUMPDEST PUSH1 0x40 MLOAD DUP1 SWAP2 SUB SWAP1 RETURN JUMPDEST PUSH2 0x222 PUSH2 0x21D CALLDATASIZE PUSH1 0x4 PUSH2 0x1211 JUMP JUMPDEST PUSH2 0x507 JUMP JUMPDEST PUSH1 0x40 MLOAD SWAP1 ISZERO ISZERO DUP2 MSTORE PUSH1 0x20 ADD PUSH2 0x206 JUMP JUMPDEST PUSH2 0x1FC PUSH2 0x240 CALLDATASIZE PUSH1 0x4 PUSH2 0x11EF JUMP JUMPDEST PUSH1 0x7 PUSH1 0x20 MSTORE PUSH1 0x0 SWAP1 DUP2 MSTORE PUSH1 0x40 SWAP1 KECCAK256 SLOAD DUP2 JUMP JUMPDEST PUSH2 0x1FC PUSH1 0xB SLOAD DUP2 JUMP JUMPDEST PUSH2 0x1FC PUSH2 0x269 CALLDATASIZE PUSH1 0x4 PUSH2 0x123B JUMP JUMPDEST PUSH1 0x0 SWAP1 DUP2 MSTORE PUSH1 0x2 PUSH1 0x20 MSTORE PUSH1 0x40 SWAP1 KECCAK256 PUSH1 0x1 ADD SLOAD SWAP1 JUMP JUMPDEST PUSH2 0x291 PUSH2 0x28C CALLDATASIZE PUSH1 0x4 PUSH2 0x123B JUMP JUMPDEST PUSH2 0x53C JUMP JUMPDEST STOP JUMPDEST PUSH2 0x291 PUSH2 0x2A1 CALLDATASIZE PUSH1 0x4 PUSH2 0x1254 JUMP JUMPDEST PUSH2 0x769 JUMP JUMPDEST PUSH2 0x291 PUSH2 0x2B4 CALLDATASIZE PUSH1 0x4 PUSH2 0x1254 JUMP JUMPDEST PUSH2 0x794 JUMP JUMPDEST PUSH2 0x291 PUSH2 0x2C7 CALLDATASIZE PUSH1 0x4 PUSH2 0x123B JUMP JUMPDEST PUSH2 0x7CC JUMP JUMPDEST PUSH2 0x291 PUSH2 0x8BD JUMP JUMPDEST PUSH2 0x291 PUSH2 0xA34 JUMP JUMPDEST PUSH2 0x1FC PUSH2 0x2EA CALLDATASIZE PUSH1 0x4 PUSH2 0x11EF JUMP JUMPDEST PUSH1 0x9 PUSH1 0x20 MSTORE PUSH1 0x0 SWAP1 DUP2 MSTORE PUSH1 0x40 SWAP1 KECCAK256 SLOAD DUP2 JUMP JUMPDEST PUSH1 0x1 SLOAD PUSH1 0xFF AND PUSH2 0x222 JUMP JUMPDEST PUSH2 0x1FC PUSH2 0x315 CALLDATASIZE PUSH1 0x4 PUSH2 0x11EF JUMP JUMPDEST PUSH1 0x8 PUSH1 0x20 MSTORE PUSH1 0x0 SWAP1 DUP2 MSTORE PUSH1 0x40 SWAP1 KECCAK256 SLOAD DUP2 JUMP JUMPDEST PUSH2 0x34E PUSH32 0x0 DUP2 JUMP JUMPDEST PUSH1 0x40 MLOAD PUSH1 0x1 PUSH1 0x1 PUSH1 0xA0 SHL SUB SWAP1 SWAP2 AND DUP2 MSTORE PUSH1 0x20 ADD PUSH2 0x206 JUMP JUMPDEST PUSH2 0x1FC PUSH1 0x3 SLOAD DUP2 JUMP JUMPDEST PUSH2 0x291 PUSH2 0xA66 JUMP JUMPDEST PUSH2 0x1FC PUSH2 0x385 CALLDATASIZE PUSH1 0x4 PUSH2 0x11EF JUMP JUMPDEST PUSH1 0x6 PUSH1 0x20 MSTORE PUSH1 0x0 SWAP1 DUP2 MSTORE PUSH1 0x40 SWAP1 KECCAK256 SLOAD DUP2 JUMP JUMPDEST PUSH2 0x291 PUSH2 0x3A5 CALLDATASIZE PUSH1 0x4 PUSH2 0x123B JUMP JUMPDEST PUSH2 0xA98 JUMP JUMPDEST PUSH2 0x1FC PUSH8 0xDE0B6B3A7640000 DUP2 JUMP JUMPDEST PUSH2 0x222 PUSH2 0x3C7 CALLDATASIZE PUSH1 0x4 PUSH2 0x1254 JUMP JUMPDEST PUSH2 0xBC9 JUMP JUMPDEST PUSH2 0x1FC PUSH1 0x0 DUP2 JUMP JUMPDEST PUSH2 0x1FC PUSH32 0x8F4F2DA22E8AC8F11E15F9FC141CDDBB5DEEA8800186560ABB6E68C5496619A9 DUP2 JUMP JUMPDEST PUSH2 0x291 PUSH2 0x409 CALLDATASIZE PUSH1 0x4 PUSH2 0x123B JUMP JUMPDEST PUSH2 0xBF4 JUMP JUMPDEST PUSH2 0x1FC PUSH1 0x4 SLOAD DUP2 JUMP JUMPDEST PUSH2 0x1FC PUSH2 0xDCD JUMP JUMPDEST PUSH2 0x291 PUSH2 0x42D CALLDATASIZE PUSH1 0x4 PUSH2 0x1254 JUMP JUMPDEST PUSH2 0xE2D JUMP JUMPDEST PUSH2 0x1FC PUSH1 0x5 SLOAD DUP2 JUMP JUMPDEST PUSH2 0x291 PUSH2 0xE52 JUMP JUMPDEST PUSH2 0x1FC PUSH2 0x451 CALLDATASIZE PUSH1 0x4 PUSH2 0x11EF JUMP JUMPDEST PUSH1 0xA PUSH1 0x20 MSTORE PUSH1 0x0 SWAP1 DUP2 MSTORE PUSH1 0x40 SWAP1 KECCAK256 SLOAD DUP2 JUMP JUMPDEST PUSH2 0x1FC PUSH32 0x339759585899103D2ACE64958E37E18CCB0504652C81D4A1B8AA80FE2126AB95 DUP2 JUMP JUMPDEST PUSH1 0x1 PUSH1 0x1 PUSH1 0xA0 SHL SUB DUP2 AND PUSH1 0x0 SWAP1 DUP2 MSTORE PUSH1 0x7 PUSH1 0x20 SWAP1 DUP2 MSTORE PUSH1 0x40 DUP1 DUP4 KECCAK256 SLOAD PUSH1 0x6 SWAP1 SWAP3 MSTORE DUP3 KECCAK256 SLOAD PUSH8 0xDE0B6B3A7640000 SWAP1 PUSH2 0x4C0 PUSH2 0xDCD JUMP JUMPDEST PUSH2 0x4CA SWAP2 SWAP1 PUSH2 0x1296 JUMP JUMPDEST PUSH1 0x1 PUSH1 0x1 PUSH1 0xA0 SHL SUB DUP6 AND PUSH1 0x0 SWAP1 DUP2 MSTORE PUSH1 0x8 PUSH1 0x20 MSTORE PUSH1 0x40 SWAP1 KECCAK256 SLOAD PUSH2 0x4ED SWAP2 SWAP1 PUSH2 0x12A9 JUMP JUMPDEST PUSH2 0x4F7 SWAP2 SWAP1 PUSH2 0x12C0 JUMP JUMPDEST PUSH2 0x501 SWAP2 SWAP1 PUSH2 0x12E2 JUMP JUMPDEST SWAP3 SWAP2 POP POP JUMP JUMPDEST PUSH1 0x0 PUSH1 0x1 PUSH1 0x1 PUSH1 0xE0 SHL SUB NOT DUP3 AND PUSH4 0x7965DB0B PUSH1 0xE0 SHL EQ DUP1 PUSH2 0x501 JUMPI POP PUSH4 0x1FFC9A7 PUSH1 0xE0 SHL PUSH1 0x1 PUSH1 0x1 PUSH1 0xE0 SHL SUB NOT DUP4 AND EQ PUSH2 0x501 JUMP JUMPDEST PUSH2 0x544 PUSH2 0xE73 JUMP JUMPDEST CALLER PUSH2 0x54D PUSH2 0xDCD JUMP JUMPDEST PUSH1 0x5 SSTORE TIMESTAMP PUSH1 0x4 SSTORE PUSH1 0x1 PUSH1 0x1 PUSH1 0xA0 SHL SUB DUP2 AND ISZERO PUSH2 0x598 JUMPI PUSH2 0x56C DUP2 PUSH2 0x48A JUMP JUMPDEST PUSH1 0x1 PUSH1 0x1 PUSH1 0xA0 SHL SUB DUP3 AND PUSH1 0x0 SWAP1 DUP2 MSTORE PUSH1 0x7 PUSH1 0x20 SWAP1 DUP2 MSTORE PUSH1 0x40 DUP1 DUP4 KECCAK256 SWAP4 SWAP1 SWAP4 SSTORE PUSH1 0x5 SLOAD PUSH1 0x6 SWAP1 SWAP2 MSTORE SWAP2 SWAP1 KECCAK256 SSTORE JUMPDEST PUSH1 0x0 DUP3 GT PUSH2 0x5E1 JUMPI PUSH1 0x40 MLOAD PUSH3 0x461BCD PUSH1 0xE5 SHL DUP2 MSTORE PUSH1 0x20 PUSH1 0x4 DUP3 ADD MSTORE PUSH1 0x11 PUSH1 0x24 DUP3 ADD MSTORE PUSH17 0x43616E6E6F74207769746864726177203 PUSH1 0x7C SHL PUSH1 0x44 DUP3 ADD MSTORE PUSH1 0x64 ADD JUMPDEST PUSH1 0x40 MLOAD DUP1 SWAP2 SUB SWAP1 REVERT JUMPDEST CALLER PUSH1 0x0 SWAP1 DUP2 MSTORE PUSH1 0x8 PUSH1 0x20 MSTORE PUSH1 0x40 SWAP1 KECCAK256 SLOAD DUP3 GT ISZERO PUSH2 0x634 JUMPI PUSH1 0x40 MLOAD PUSH3 0x461BCD PUSH1 0xE5 SHL DUP2 MSTORE PUSH1 0x20 PUSH1 0x4 DUP3 ADD MSTORE PUSH1 0x11 PUSH1 0x24 DUP3 ADD MSTORE PUSH17 0x139BDD08195B9BDD59DA081CDD185AD959 PUSH1 0x7A SHL PUSH1 0x44 DUP3 ADD MSTORE PUSH1 0x64 ADD PUSH2 0x5D8 JUMP JUMPDEST DUP2 PUSH1 0xB PUSH1 0x0 DUP3 DUP3 SLOAD PUSH2 0x646 SWAP2 SWAP1 PUSH2 0x1296 JUMP JUMPDEST SWAP1 SWAP2 SSTORE POP POP CALLER PUSH1 0x0 SWAP1 DUP2 MSTORE PUSH1 0x8 PUSH1 0x20 MSTORE PUSH1 0x40 DUP2 KECCAK256 DUP1 SLOAD DUP5 SWAP3 SWAP1 PUSH2 0x66A SWAP1 DUP5 SWAP1 PUSH2 0x1296 JUMP JUMPDEST SWAP1 SWAP2 SSTORE POP POP PUSH1 0x40 MLOAD PUSH4 0xA9059CBB PUSH1 0xE0 SHL DUP2 MSTORE CALLER PUSH1 0x4 DUP3 ADD MSTORE PUSH1 0x24 DUP2 ADD DUP4 SWAP1 MSTORE PUSH32 0x0 PUSH1 0x1 PUSH1 0x1 PUSH1 0xA0 SHL SUB AND SWAP1 PUSH4 0xA9059CBB SWAP1 PUSH1 0x44 ADD PUSH1 0x20 PUSH1 0x40 MLOAD DUP1 DUP4 SUB DUP2 PUSH1 0x0 DUP8 GAS CALL ISZERO DUP1 ISZERO PUSH2 0x6DC JUMPI RETURNDATASIZE PUSH1 0x0 DUP1 RETURNDATACOPY RETURNDATASIZE PUSH1 0x0 REVERT JUMPDEST POP POP POP POP PUSH1 0x40 MLOAD RETURNDATASIZE PUSH1 0x1F NOT PUSH1 0x1F DUP3 ADD AND DUP3 ADD DUP1 PUSH1 0x40 MSTORE POP DUP2 ADD SWAP1 PUSH2 0x700 SWAP2 SWAP1 PUSH2 0x12F5 JUMP JUMPDEST PUSH2 0x71C JUMPI PUSH1 0x40 MLOAD PUSH3 0x461BCD PUSH1 0xE5 SHL DUP2 MSTORE PUSH1 0x4 ADD PUSH2 0x5D8 SWAP1 PUSH2 0x1317 JUMP JUMPDEST PUSH1 0x40 MLOAD DUP3 DUP2 MSTORE CALLER SWAP1 PUSH32 0x7084F5476618D8E60B11EF0D7D3F06914655ADB8793E28FF7F018D4C76D505D5 SWAP1 PUSH1 0x20 ADD JUMPDEST PUSH1 0x40 MLOAD DUP1 SWAP2 SUB SWAP1 LOG2 PUSH2 0x75B CALLER PUSH2 0xE9D JUMP JUMPDEST POP PUSH2 0x766 PUSH1 0x1 PUSH1 0x0 SSTORE JUMP JUMPDEST POP JUMP JUMPDEST PUSH1 0x0 DUP3 DUP2 MSTORE PUSH1 0x2 PUSH1 0x20 MSTORE PUSH1 0x40 SWAP1 KECCAK256 PUSH1 0x1 ADD SLOAD PUSH2 0x784 DUP2 PUSH2 0xF50 JUMP JUMPDEST PUSH2 0x78E DUP4 DUP4 PUSH2 0xF5A JUMP JUMPDEST POP POP POP POP JUMP JUMPDEST PUSH1 0x1 PUSH1 0x1 PUSH1 0xA0 SHL SUB DUP2 AND CALLER EQ PUSH2 0x7BD JUMPI PUSH1 0x40 MLOAD PUSH4 0x334BD919 PUSH1 0xE1 SHL DUP2 MSTORE PUSH1 0x4 ADD PUSH1 0x40 MLOAD DUP1 SWAP2 SUB SWAP1 REVERT JUMPDEST PUSH2 0x7C7 DUP3 DUP3 PUSH2 0xFEE JUMP JUMPDEST POP POP POP JUMP JUMPDEST PUSH1 0x0 PUSH2 0x7D7 DUP2 PUSH2 0xF50 JUMP JUMPDEST PUSH1 0x0 PUSH2 0x7E1 PUSH2 0xDCD JUMP JUMPDEST PUSH1 0x5 SSTORE TIMESTAMP PUSH1 0x4 SSTORE PUSH1 0x1 PUSH1 0x1 PUSH1 0xA0 SHL SUB DUP2 AND ISZERO PUSH2 0x82C JUMPI PUSH2 0x800 DUP2 PUSH2 0x48A JUMP JUMPDEST PUSH1 0x1 PUSH1 0x1 PUSH1 0xA0 SHL SUB DUP3 AND PUSH1 0x0 SWAP1 DUP2 MSTORE PUSH1 0x7 PUSH1 0x20 SWAP1 DUP2 MSTORE PUSH1 0x40 DUP1 DUP4 KECCAK256 SWAP4 SWAP1 SWAP4 SSTORE PUSH1 0x5 SLOAD PUSH1 0x6 SWAP1 SWAP2 MSTORE SWAP2 SWAP1 KECCAK256 SSTORE JUMPDEST PUSH1 0x0 DUP4 GT PUSH2 0x87C JUMPI PUSH1 0x40 MLOAD PUSH3 0x461BCD PUSH1 0xE5 SHL DUP2 MSTORE PUSH1 0x20 PUSH1 0x4 DUP3 ADD MSTORE PUSH1 0x1D PUSH1 0x24 DUP3 ADD MSTORE PUSH32 0x526577617264206D7573742062652067726561746572207468616E2030000000 PUSH1 0x44 DUP3 ADD MSTORE PUSH1 0x64 ADD PUSH2 0x5D8 JUMP JUMPDEST PUSH1 0x3 DUP4 SWAP1 SSTORE TIMESTAMP PUSH1 0x4 SSTORE PUSH1 0x40 MLOAD DUP4 DUP2 MSTORE PUSH32 0xDE88A922E0D3B88B24E9623EFEB464919C6BF9F66857A65E2BFCF2CE87A9433D SWAP1 PUSH1 0x20 ADD PUSH1 0x40 MLOAD DUP1 SWAP2 SUB SWAP1 LOG1 POP POP POP JUMP JUMPDEST PUSH2 0x8C5 PUSH2 0xE73 JUMP JUMPDEST CALLER PUSH2 0x8CE PUSH2 0xDCD JUMP JUMPDEST PUSH1 0x5 SSTORE TIMESTAMP PUSH1 0x4 SSTORE PUSH1 0x1 PUSH1 0x1 PUSH1 0xA0 SHL SUB DUP2 AND ISZERO PUSH2 0x919 JUMPI PUSH2 0x8ED DUP2 PUSH2 0x48A JUMP JUMPDEST PUSH1 0x1 PUSH1 0x1 PUSH1 0xA0 SHL SUB DUP3 AND PUSH1 0x0 SWAP1 DUP2 MSTORE PUSH1 0x7 PUSH1 0x20 SWAP1 DUP2 MSTORE PUSH1 0x40 DUP1 DUP4 KECCAK256 SWAP4 SWAP1 SWAP4 SSTORE PUSH1 0x5 SLOAD PUSH1 0x6 SWAP1 SWAP2 MSTORE SWAP2 SWAP1 KECCAK256 SSTORE JUMPDEST CALLER PUSH1 0x0 SWAP1 DUP2 MSTORE PUSH1 0x7 PUSH1 0x20 MSTORE PUSH1 0x40 SWAP1 KECCAK256 SLOAD DUP1 ISZERO PUSH2 0xA26 JUMPI CALLER PUSH1 0x0 DUP2 DUP2 MSTORE PUSH1 0x7 PUSH1 0x20 MSTORE PUSH1 0x40 DUP1 DUP3 KECCAK256 SWAP2 SWAP1 SWAP2 SSTORE MLOAD PUSH4 0xA9059CBB PUSH1 0xE0 SHL DUP2 MSTORE PUSH1 0x4 DUP2 ADD SWAP2 SWAP1 SWAP2 MSTORE PUSH1 0x24 DUP2 ADD DUP3 SWAP1 MSTORE PUSH1 0x1 PUSH1 0x1 PUSH1 0xA0 SHL SUB PUSH32 0x0 AND SWAP1 PUSH4 0xA9059CBB SWAP1 PUSH1 0x44 ADD PUSH1 0x20 PUSH1 0x40 MLOAD DUP1 DUP4 SUB DUP2 PUSH1 0x0 DUP8 GAS CALL ISZERO DUP1 ISZERO PUSH2 0x9B0 JUMPI RETURNDATASIZE PUSH1 0x0 DUP1 RETURNDATACOPY RETURNDATASIZE PUSH1 0x0 REVERT JUMPDEST POP POP POP POP PUSH1 0x40 MLOAD RETURNDATASIZE PUSH1 0x1F NOT PUSH1 0x1F DUP3 ADD AND DUP3 ADD DUP1 PUSH1 0x40 MSTORE POP DUP2 ADD SWAP1 PUSH2 0x9D4 SWAP2 SWAP1 PUSH2 0x12F5 JUMP JUMPDEST PUSH2 0x9F0 JUMPI PUSH1 0x40 MLOAD PUSH3 0x461BCD PUSH1 0xE5 SHL DUP2 MSTORE PUSH1 0x4 ADD PUSH2 0x5D8 SWAP1 PUSH2 0x1317 JUMP JUMPDEST PUSH1 0x40 MLOAD DUP2 DUP2 MSTORE CALLER SWAP1 PUSH32 0xE2403640BA68FED3A2F88B7557551D1993F84B99BB10FF833F0CF8DB0C5E0486 SWAP1 PUSH1 0x20 ADD PUSH1 0x40 MLOAD DUP1 SWAP2 SUB SWAP1 LOG2 JUMPDEST POP POP PUSH2 0xA32 PUSH1 0x1 PUSH1 0x0 SSTORE JUMP JUMPDEST JUMP JUMPDEST PUSH32 0x339759585899103D2ACE64958E37E18CCB0504652C81D4A1B8AA80FE2126AB95 PUSH2 0xA5E DUP2 PUSH2 0xF50 JUMP JUMPDEST PUSH2 0x766 PUSH2 0x105B JUMP JUMPDEST PUSH32 0x339759585899103D2ACE64958E37E18CCB0504652C81D4A1B8AA80FE2126AB95 PUSH2 0xA90 DUP2 PUSH2 0xF50 JUMP JUMPDEST PUSH2 0x766 PUSH2 0x10AD JUMP JUMPDEST PUSH32 0x8F4F2DA22E8AC8F11E15F9FC141CDDBB5DEEA8800186560ABB6E68C5496619A9 PUSH2 0xAC2 DUP2 PUSH2 0xF50 JUMP JUMPDEST PUSH1 0x0 DUP3 GT PUSH2 0xB12 JUMPI PUSH1 0x40 MLOAD PUSH3 0x461BCD PUSH1 0xE5 SHL DUP2 MSTORE PUSH1 0x20 PUSH1 0x4 DUP3 ADD MSTORE PUSH1 0x1D PUSH1 0x24 DUP3 ADD MSTORE PUSH32 0x416D6F756E74206D7573742062652067726561746572207468616E2030000000 PUSH1 0x44 DUP3 ADD MSTORE PUSH1 0x64 ADD PUSH2 0x5D8 JUMP JUMPDEST PUSH1 0x40 MLOAD PUSH4 0x23B872DD PUSH1 0xE0 SHL DUP2 MSTORE CALLER PUSH1 0x4 DUP3 ADD MSTORE ADDRESS PUSH1 0x24 DUP3 ADD MSTORE PUSH1 0x44 DUP2 ADD DUP4 SWAP1 MSTORE PUSH32 0x0 PUSH1 0x1 PUSH1 0x1 PUSH1 0xA0 SHL SUB AND SWAP1 PUSH4 0x23B872DD SWAP1 PUSH1 0x64 ADD PUSH1 0x20 PUSH1 0x40 MLOAD DUP1 DUP4 SUB DUP2 PUSH1 0x0 DUP8 GAS CALL ISZERO DUP1 ISZERO PUSH2 0xB85 JUMPI RETURNDATASIZE PUSH1 0x0 DUP1 RETURNDATACOPY RETURNDATASIZE PUSH1 0x0 REVERT JUMPDEST POP POP POP POP PUSH1 0x40 MLOAD RETURNDATASIZE PUSH1 0x1F NOT PUSH1 0x1F DUP3 ADD AND DUP3 ADD DUP1 PUSH1 0x40 MSTORE POP DUP2 ADD SWAP1 PUSH2 0xBA9 SWAP2 SWAP1 PUSH2 0x12F5 JUMP JUMPDEST PUSH2 0xBC5 JUMPI PUSH1 0x40 MLOAD PUSH3 0x461BCD PUSH1 0xE5 SHL DUP2 MSTORE PUSH1 0x4 ADD PUSH2 0x5D8 SWAP1 PUSH2 0x1317 JUMP JUMPDEST POP POP JUMP JUMPDEST PUSH1 0x0 SWAP2 DUP3 MSTORE PUSH1 0x2 PUSH1 0x20 SWAP1 DUP2 MSTORE PUSH1 0x40 DUP1 DUP5 KECCAK256 PUSH1 0x1 PUSH1 0x1 PUSH1 0xA0 SHL SUB SWAP4 SWAP1 SWAP4 AND DUP5 MSTORE SWAP2 SWAP1 MSTORE SWAP1 KECCAK256 SLOAD PUSH1 0xFF AND SWAP1 JUMP JUMPDEST PUSH2 0xBFC PUSH2 0xE73 JUMP JUMPDEST PUSH2 0xC04 PUSH2 0x10E8 JUMP JUMPDEST CALLER PUSH2 0xC0D PUSH2 0xDCD JUMP JUMPDEST PUSH1 0x5 SSTORE TIMESTAMP PUSH1 0x4 SSTORE PUSH1 0x1 PUSH1 0x1 PUSH1 0xA0 SHL SUB DUP2 AND ISZERO PUSH2 0xC58 JUMPI PUSH2 0xC2C DUP2 PUSH2 0x48A JUMP JUMPDEST PUSH1 0x1 PUSH1 0x1 PUSH1 0xA0 SHL SUB DUP3 AND PUSH1 0x0 SWAP1 DUP2 MSTORE PUSH1 0x7 PUSH1 0x20 SWAP1 DUP2 MSTORE PUSH1 0x40 DUP1 DUP4 KECCAK256 SWAP4 SWAP1 SWAP4 SSTORE PUSH1 0x5 SLOAD PUSH1 0x6 SWAP1 SWAP2 MSTORE SWAP2 SWAP1 KECCAK256 SSTORE JUMPDEST PUSH1 0x0 DUP3 GT PUSH2 0xC99 JUMPI PUSH1 0x40 MLOAD PUSH3 0x461BCD PUSH1 0xE5 SHL DUP2 MSTORE PUSH1 0x20 PUSH1 0x4 DUP3 ADD MSTORE PUSH1 0xE PUSH1 0x24 DUP3 ADD MSTORE PUSH14 0x43616E6E6F74207374616B65203 PUSH1 0x94 SHL PUSH1 0x44 DUP3 ADD MSTORE PUSH1 0x64 ADD PUSH2 0x5D8 JUMP JUMPDEST DUP2 PUSH1 0xB PUSH1 0x0 DUP3 DUP3 SLOAD PUSH2 0xCAB SWAP2 SWAP1 PUSH2 0x12E2 JUMP JUMPDEST SWAP1 SWAP2 SSTORE POP POP CALLER PUSH1 0x0 SWAP1 DUP2 MSTORE PUSH1 0x8 PUSH1 0x20 MSTORE PUSH1 0x40 DUP2 KECCAK256 DUP1 SLOAD DUP5 SWAP3 SWAP1 PUSH2 0xCCF SWAP1 DUP5 SWAP1 PUSH2 0x12E2 JUMP JUMPDEST SWAP1 SWAP2 SSTORE POP POP CALLER PUSH1 0x0 DUP2 DUP2 MSTORE PUSH1 0x9 PUSH1 0x20 MSTORE PUSH1 0x40 SWAP1 DUP2 SWAP1 KECCAK256 TIMESTAMP SWAP1 SSTORE MLOAD PUSH4 0x23B872DD PUSH1 0xE0 SHL DUP2 MSTORE PUSH1 0x4 DUP2 ADD SWAP2 SWAP1 SWAP2 MSTORE ADDRESS PUSH1 0x24 DUP3 ADD MSTORE PUSH1 0x44 DUP2 ADD DUP4 SWAP1 MSTORE PUSH1 0x1 PUSH1 0x1 PUSH1 0xA0 SHL SUB PUSH32 0x0 AND SWAP1 PUSH4 0x23B872DD SWAP1 PUSH1 0x64 ADD PUSH1 0x20 PUSH1 0x40 MLOAD DUP1 DUP4 SUB DUP2 PUSH1 0x0 DUP8 GAS CALL ISZERO DUP1 ISZERO PUSH2 0xD5B JUMPI RETURNDATASIZE PUSH1 0x0 DUP1 RETURNDATACOPY RETURNDATASIZE PUSH1 0x0 REVERT JUMPDEST POP POP POP POP PUSH1 0x40 MLOAD RETURNDATASIZE PUSH1 0x1F NOT PUSH1 0x1F DUP3 ADD AND DUP3 ADD DUP1 PUSH1 0x40 MSTORE POP DUP2 ADD SWAP1 PUSH2 0xD7F SWAP2 SWAP1 PUSH2 0x12F5 JUMP JUMPDEST PUSH2 0xD9B JUMPI PUSH1 0x40 MLOAD PUSH3 0x461BCD PUSH1 0xE5 SHL DUP2 MSTORE PUSH1 0x4 ADD PUSH2 0x5D8 SWAP1 PUSH2 0x1317 JUMP JUMPDEST PUSH1 0x40 MLOAD DUP3 DUP2 MSTORE CALLER SWAP1 PUSH32 0x9E71BC8EEA02A63969F509818F2DAFB9254532904319F9DBDA79B67BD34A5F3D SWAP1 PUSH1 0x20 ADD PUSH2 0x74A JUMP JUMPDEST PUSH1 0x0 PUSH1 0xB SLOAD PUSH1 0x0 SUB PUSH2 0xDE0 JUMPI POP PUSH1 0x5 SLOAD SWAP1 JUMP JUMPDEST PUSH1 0xB SLOAD PUSH8 0xDE0B6B3A7640000 PUSH1 0x3 SLOAD PUSH1 0x4 SLOAD TIMESTAMP PUSH2 0xDFD SWAP2 SWAP1 PUSH2 0x1296 JUMP JUMPDEST PUSH2 0xE07 SWAP2 SWAP1 PUSH2 0x12A9 JUMP JUMPDEST PUSH2 0xE11 SWAP2 SWAP1 PUSH2 0x12A9 JUMP JUMPDEST PUSH2 0xE1B SWAP2 SWAP1 PUSH2 0x12C0 JUMP JUMPDEST PUSH1 0x5 SLOAD PUSH2 0xE28 SWAP2 SWAP1 PUSH2 0x12E2 JUMP JUMPDEST SWAP1 POP SWAP1 JUMP JUMPDEST PUSH1 0x0 DUP3 DUP2 MSTORE PUSH1 0x2 PUSH1 0x20 MSTORE PUSH1 0x40 SWAP1 KECCAK256 PUSH1 0x1 ADD SLOAD PUSH2 0xE48 DUP2 PUSH2 0xF50 JUMP JUMPDEST PUSH2 0x78E DUP4 DUP4 PUSH2 0xFEE JUMP JUMPDEST CALLER PUSH1 0x0 SWAP1 DUP2 MSTORE PUSH1 0x8 PUSH1 0x20 MSTORE PUSH1 0x40 SWAP1 KECCAK256 SLOAD PUSH2 0xE6B SWAP1 PUSH2 0x53C JUMP JUMPDEST PUSH2 0xA32 PUSH2 0x8BD JUMP JUMPDEST PUSH1 0x2 PUSH1 0x0 SLOAD SUB PUSH2 0xE96 JUMPI PUSH1 0x40 MLOAD PUSH4 0x3EE5AEB5 PUSH1 0xE0 SHL DUP2 MSTORE PUSH1 0x4 ADD PUSH1 0x40 MLOAD DUP1 SWAP2 SUB SWAP1 REVERT JUMPDEST PUSH1 0x2 PUSH1 0x0 SSTORE JUMP JUMPDEST PUSH1 0x1 PUSH1 0x1 PUSH1 0xA0 SHL SUB DUP2 AND PUSH1 0x0 SWAP1 DUP2 MSTORE PUSH1 0x8 PUSH1 0x20 SWAP1 DUP2 MSTORE PUSH1 0x40 DUP1 DUP4 KECCAK256 SLOAD PUSH1 0x9 SWAP1 SWAP3 MSTORE DUP3 KECCAK256 SLOAD SWAP1 SWAP2 SWAP1 PUSH2 0xECE SWAP1 TIMESTAMP PUSH2 0x1296 JUMP JUMPDEST SWAP1 POP PUSH1 0x0 PUSH2 0xEE7 PUSH2 0xEE2 PUSH3 0x15180 DUP5 PUSH2 0x12C0 JUMP JUMPDEST PUSH2 0x110C JUMP JUMPDEST PUSH2 0xEF1 SWAP1 DUP5 PUSH2 0x12A9 JUMP JUMPDEST PUSH1 0x1 PUSH1 0x1 PUSH1 0xA0 SHL SUB DUP6 AND PUSH1 0x0 DUP2 DUP2 MSTORE PUSH1 0xA PUSH1 0x20 MSTORE PUSH1 0x40 SWAP1 DUP2 SWAP1 KECCAK256 DUP4 SWAP1 SSTORE MLOAD SWAP2 SWAP3 POP SWAP1 PUSH32 0xA05F39E6D8D4E060324EDB900F0F5909DE621FD93F19CCF65BA74E5965C98C36 SWAP1 PUSH2 0xF42 SWAP1 DUP5 DUP2 MSTORE PUSH1 0x20 ADD SWAP1 JUMP JUMPDEST PUSH1 0x40 MLOAD DUP1 SWAP2 SUB SWAP1 LOG2 POP POP POP POP JUMP JUMPDEST PUSH2 0x766 DUP2 CALLER PUSH2 0x117C JUMP JUMPDEST PUSH1 0x0 PUSH2 0xF66 DUP4 DUP4 PUSH2 0xBC9 JUMP JUMPDEST PUSH2 0xFE6 JUMPI PUSH1 0x0 DUP4 DUP2 MSTORE PUSH1 0x2 PUSH1 0x20 SWAP1 DUP2 MSTORE PUSH1 0x40 DUP1 DUP4 KECCAK256 PUSH1 0x1 PUSH1 0x1 PUSH1 0xA0 SHL SUB DUP7 AND DUP5 MSTORE SWAP1 SWAP2 MSTORE SWAP1 KECCAK256 DUP1 SLOAD PUSH1 0xFF NOT AND PUSH1 0x1 OR SWAP1 SSTORE PUSH2 0xF9E CALLER SWAP1 JUMP JUMPDEST PUSH1 0x1 PUSH1 0x1 PUSH1 0xA0 SHL SUB AND DUP3 PUSH1 0x1 PUSH1 0x1 PUSH1 0xA0 SHL SUB AND DUP5 PUSH32 0x2F8788117E7EFF1D82E926EC794901D17C78024A50270940304540A733656F0D PUSH1 0x40 MLOAD PUSH1 0x40 MLOAD DUP1 SWAP2 SUB SWAP1 LOG4 POP PUSH1 0x1 PUSH2 0x501 JUMP JUMPDEST POP PUSH1 0x0 PUSH2 0x501 JUMP JUMPDEST PUSH1 0x0 PUSH2 0xFFA DUP4 DUP4 PUSH2 0xBC9 JUMP JUMPDEST ISZERO PUSH2 0xFE6 JUMPI PUSH1 0x0 DUP4 DUP2 MSTORE PUSH1 0x2 PUSH1 0x20 SWAP1 DUP2 MSTORE PUSH1 0x40 DUP1 DUP4 KECCAK256 PUSH1 0x1 PUSH1 0x1 PUSH1 0xA0 SHL SUB DUP7 AND DUP1 DUP6 MSTORE SWAP3 MSTORE DUP1 DUP4 KECCAK256 DUP1 SLOAD PUSH1 0xFF NOT AND SWAP1 SSTORE MLOAD CALLER SWAP3 DUP7 SWAP2 PUSH32 0xF6391F5C32D9C69D2A47EA670B442974B53935D1EDC7FD64EB21E047A839171B SWAP2 SWAP1 LOG4 POP PUSH1 0x1 PUSH2 0x501 JUMP JUMPDEST PUSH2 0x1063 PUSH2 0x11B5 JUMP JUMPDEST PUSH1 0x1 DUP1 SLOAD PUSH1 0xFF NOT AND SWAP1 SSTORE PUSH32 0x5DB9EE0A495BF2E6FF9C91A7834C1BA4FDD244A5E8AA4E537BD38AEAE4B073AA CALLER JUMPDEST PUSH1 0x40 MLOAD PUSH1 0x1 PUSH1 0x1 PUSH1 0xA0 SHL SUB SWAP1 SWAP2 AND DUP2 MSTORE PUSH1 0x20 ADD PUSH1 0x40 MLOAD DUP1 SWAP2 SUB SWAP1 LOG1 JUMP JUMPDEST PUSH2 0x10B5 PUSH2 0x10E8 JUMP JUMPDEST PUSH1 0x1 DUP1 SLOAD PUSH1 0xFF NOT AND DUP2 OR SWAP1 SSTORE PUSH32 0x62E78CEA01BEE320CD4E420270B5EA74000D11B0C9F74754EBDBFC544B05A258 CALLER PUSH2 0x1090 JUMP JUMPDEST PUSH1 0x1 SLOAD PUSH1 0xFF AND ISZERO PUSH2 0xA32 JUMPI PUSH1 0x40 MLOAD PUSH4 0xD93C0665 PUSH1 0xE0 SHL DUP2 MSTORE PUSH1 0x4 ADD PUSH1 0x40 MLOAD DUP1 SWAP2 SUB SWAP1 REVERT JUMPDEST PUSH1 0x0 PUSH1 0x3 DUP3 GT ISZERO PUSH2 0x116D JUMPI POP DUP1 PUSH1 0x0 PUSH2 0x1126 PUSH1 0x2 DUP4 PUSH2 0x12C0 JUMP JUMPDEST PUSH2 0x1131 SWAP1 PUSH1 0x1 PUSH2 0x12E2 JUMP JUMPDEST SWAP1 POP JUMPDEST DUP2 DUP2 LT ISZERO PUSH2 0x1167 JUMPI SWAP1 POP DUP1 PUSH1 0x2 DUP2 PUSH2 0x114C DUP2 DUP7 PUSH2 0x12C0 JUMP JUMPDEST PUSH2 0x1156 SWAP2 SWAP1 PUSH2 0x12E2 JUMP JUMPDEST PUSH2 0x1160 SWAP2 SWAP1 PUSH2 0x12C0 JUMP JUMPDEST SWAP1 POP PUSH2 0x1134 JUMP JUMPDEST POP SWAP2 SWAP1 POP JUMP JUMPDEST DUP2 ISZERO PUSH2 0x1177 JUMPI POP PUSH1 0x1 JUMPDEST SWAP2 SWAP1 POP JUMP JUMPDEST PUSH2 0x1186 DUP3 DUP3 PUSH2 0xBC9 JUMP JUMPDEST PUSH2 0xBC5 JUMPI PUSH1 0x40 MLOAD PUSH4 0xE2517D3F PUSH1 0xE0 SHL DUP2 MSTORE PUSH1 0x1 PUSH1 0x1 PUSH1 0xA0 SHL SUB DUP3 AND PUSH1 0x4 DUP3 ADD MSTORE PUSH1 0x24 DUP2 ADD DUP4 SWAP1 MSTORE PUSH1 0x44 ADD PUSH2 0x5D8 JUMP JUMPDEST PUSH1 0x1 SLOAD PUSH1 0xFF AND PUSH2 0xA32 JUMPI PUSH1 0x40 MLOAD PUSH4 0x8DFC202B PUSH1 0xE0 SHL DUP2 MSTORE PUSH1 0x4 ADD PUSH1 0x40 MLOAD DUP1 SWAP2 SUB SWAP1 REVERT JUMPDEST DUP1 CALLDATALOAD PUSH1 0x1 PUSH1 0x1 PUSH1 0xA0 SHL SUB DUP2 AND DUP2 EQ PUSH2 0x1177 JUMPI PUSH1 0x0 DUP1 REVERT JUMPDEST PUSH1 0x0 PUSH1 0x20 DUP3 DUP5 SUB SLT ISZERO PUSH2 0x1201 JUMPI PUSH1 0x0 DUP1 REVERT JUMPDEST PUSH2 0x120A DUP3 PUSH2 0x11D8 JUMP JUMPDEST SWAP4 SWAP3 POP POP POP JUMP JUMPDEST PUSH1 0x0 PUSH1 0x20 DUP3 DUP5 SUB SLT ISZERO PUSH2 0x1223 JUMPI PUSH1 0x0 DUP1 REVERT JUMPDEST DUP2 CALLDATALOAD PUSH1 0x1 PUSH1 0x1 PUSH1 0xE0 SHL SUB NOT DUP2 AND DUP2 EQ PUSH2 0x120A JUMPI PUSH1 0x0 DUP1 REVERT JUMPDEST PUSH1 0x0 PUSH1 0x20 DUP3 DUP5 SUB SLT ISZERO PUSH2 0x124D JUMPI PUSH1 0x0 DUP1 REVERT JUMPDEST POP CALLDATALOAD SWAP2 SWAP1 POP JUMP JUMPDEST PUSH1 0x0 DUP1 PUSH1 0x40 DUP4 DUP6 SUB SLT ISZERO PUSH2 0x1267 JUMPI PUSH1 0x0 DUP1 REVERT JUMPDEST DUP3 CALLDATALOAD SWAP2 POP PUSH2 0x1277 PUSH1 0x20 DUP5 ADD PUSH2 0x11D8 JUMP JUMPDEST SWAP1 POP SWAP3 POP SWAP3 SWAP1 POP JUMP JUMPDEST PUSH4 0x4E487B71 PUSH1 0xE0 SHL PUSH1 0x0 MSTORE PUSH1 0x11 PUSH1 0x4 MSTORE PUSH1 0x24 PUSH1 0x0 REVERT JUMPDEST DUP2 DUP2 SUB DUP2 DUP2 GT ISZERO PUSH2 0x501 JUMPI PUSH2 0x501 PUSH2 0x1280 JUMP JUMPDEST DUP1 DUP3 MUL DUP2 ISZERO DUP3 DUP3 DIV DUP5 EQ OR PUSH2 0x501 JUMPI PUSH2 0x501 PUSH2 0x1280 JUMP JUMPDEST PUSH1 0x0 DUP3 PUSH2 0x12DD JUMPI PUSH4 0x4E487B71 PUSH1 0xE0 SHL PUSH1 0x0 MSTORE PUSH1 0x12 PUSH1 0x4 MSTORE PUSH1 0x24 PUSH1 0x0 REVERT JUMPDEST POP DIV SWAP1 JUMP JUMPDEST DUP1 DUP3 ADD DUP1 DUP3 GT ISZERO PUSH2 0x501 JUMPI PUSH2 0x501 PUSH2 0x1280 JUMP JUMPDEST PUSH1 0x0 PUSH1 0x20 DUP3 DUP5 SUB SLT ISZERO PUSH2 0x1307 JUMPI PUSH1 0x0 DUP1 REVERT JUMPDEST DUP2 MLOAD DUP1 ISZERO ISZERO DUP2 EQ PUSH2 0x120A JUMPI PUSH1 0x0 DUP1 REVERT JUMPDEST PUSH1 0x20 DUP1 DUP3 MSTORE PUSH1 0xF SWAP1 DUP3 ADD MSTORE PUSH15 0x151C985B9CD9995C8819985A5B1959 PUSH1 0x8A SHL PUSH1 0x40 DUP3 ADD MSTORE PUSH1 0x60 ADD SWAP1 JUMP INVALID LOG2 PUSH5 0x6970667358 0x22 SLT KECCAK256 SWAP7 PUSH28 0x7DAEF1D55776D14AFBF65AAAF1780BB27435664BA88BE7CE0306B7AD 0xBC GAS PUSH5 0x736F6C6343 STOP ADDMOD XOR STOP CALLER "},"methodIdentifiers":{"DEFAULT_ADMIN_ROLE()":"a217fddf","DEPOSITOR_ROLE()":"a3b0b5a3","MAINTAINER_ROLE()":"f8742254","POINTS_MULTIPLIER()":"8f2203f6","balanceOf(address)":"70a08231","depositRewards(uint256)":"8bdf67f2","earned(address)":"008cc262","exit()":"e9fad8ee","getReward()":"3d18b912","getRoleAdmin(bytes32)":"248a9ca3","grantRole(bytes32,address)":"2f2ff15d","hasRole(bytes32,address)":"91d14854","lastUpdateTime()":"c8f33c91","notifyRewardAmount(uint256)":"3c6b16ab","pause()":"8456cb59","paused()":"5c975abb","renounceRole(bytes32,address)":"36568abe","revokeRole(bytes32,address)":"d547741f","rewardPerToken()":"cd3daf9d","rewardPerTokenStored()":"df136d65","rewardRate()":"7b0a47ee","rewards(address)":"0700037d","stake(uint256)":"a694fc3a","stakingTime(address)":"583d42fd","stakingToken()":"72f702f3","supportsInterface(bytes4)":"01ffc9a7","totalSupply()":"18160ddd","unpause()":"3f4ba83a","userPoints(address)":"f50ddbc7","userRewardPerTokenPaid(address)":"8b876347","withdraw(uint256)":"2e1a7d4d"}}}}}