{
  "_format": "hh-sol-artifact-1",
  "contractName": "StakingPool",
  "sourceName": "contracts/StakingPool.sol",
  "abi": [
    {
      "inputs": [
        {
          "internalType": "address",
          "name": "_stakingToken",
          "type": "address"
        },
        {
          "internalType": "address",
          "name": "admin",
          "type": "address"
        }
      ],
      "stateMutability": "nonpayable",
      "type": "constructor"
    },
    {
      "inputs": [],
      "name": "AccessControlBadConfirmation",
      "type": "error"
    },
    {
      "inputs": [
        {
          "internalType": "address",
          "name": "account",
          "type": "address"
        },
        {
          "internalType": "bytes32",
          "name": "neededRole",
          "type": "bytes32"
        }
      ],
      "name": "AccessControlUnauthorizedAccount",
      "type": "error"
    },
    {
      "inputs": [],
      "name": "EnforcedPause",
      "type": "error"
    },
    {
      "inputs": [],
      "name": "ExpectedPause",
      "type": "error"
    },
    {
      "inputs": [],
      "name": "ReentrancyGuardReentrantCall",
      "type": "error"
    },
    {
      "anonymous": false,
      "inputs": [
        {
          "indexed": false,
          "internalType": "address",
          "name": "account",
          "type": "address"
        }
      ],
      "name": "Paused",
      "type": "event"
    },
    {
      "anonymous": false,
      "inputs": [
        {
          "indexed": true,
          "internalType": "address",
          "name": "user",
          "type": "address"
        },
        {
          "indexed": false,
          "internalType": "uint256",
          "name": "points",
          "type": "uint256"
        }
      ],
      "name": "PointsUpdated",
      "type": "event"
    },
    {
      "anonymous": false,
      "inputs": [
        {
          "indexed": false,
          "internalType": "uint256",
          "name": "reward",
          "type": "uint256"
        }
      ],
      "name": "RewardAdded",
      "type": "event"
    },
    {
      "anonymous": false,
      "inputs": [
        {
          "indexed": true,
          "internalType": "address",
          "name": "user",
          "type": "address"
        },
        {
          "indexed": false,
          "internalType": "uint256",
          "name": "reward",
          "type": "uint256"
        }
      ],
      "name": "RewardPaid",
      "type": "event"
    },
    {
      "anonymous": false,
      "inputs": [
        {
          "indexed": true,
          "internalType": "bytes32",
          "name": "role",
          "type": "bytes32"
        },
        {
          "indexed": true,
          "internalType": "bytes32",
          "name": "previousAdminRole",
          "type": "bytes32"
        },
        {
          "indexed": true,
          "internalType": "bytes32",
          "name": "newAdminRole",
          "type": "bytes32"
        }
      ],
      "name": "RoleAdminChanged",
      "type": "event"
    },
    {
      "anonymous": false,
      "inputs": [
        {
          "indexed": true,
          "internalType": "bytes32",
          "name": "role",
          "type": "bytes32"
        },
        {
          "indexed": true,
          "internalType": "address",
          "name": "account",
          "type": "address"
        },
        {
          "indexed": true,
          "internalType": "address",
          "name": "sender",
          "type": "address"
        }
      ],
      "name": "RoleGranted",
      "type": "event"
    },
    {
      "anonymous": false,
      "inputs": [
        {
          "indexed": true,
          "internalType": "bytes32",
          "name": "role",
          "type": "bytes32"
        },
        {
          "indexed": true,
          "internalType": "address",
          "name": "account",
          "type": "address"
        },
        {
          "indexed": true,
          "internalType": "address",
          "name": "sender",
          "type": "address"
        }
      ],
      "name": "RoleRevoked",
      "type": "event"
    },
    {
      "anonymous": false,
      "inputs": [
        {
          "indexed": true,
          "internalType": "address",
          "name": "user",
          "type": "address"
        },
        {
          "indexed": false,
          "internalType": "uint256",
          "name": "amount",
          "type": "uint256"
        }
      ],
      "name": "Staked",
      "type": "event"
    },
    {
      "anonymous": false,
      "inputs": [
        {
          "indexed": false,
          "internalType": "address",
          "name": "account",
          "type": "address"
        }
      ],
      "name": "Unpaused",
      "type": "event"
    },
    {
      "anonymous": false,
      "inputs": [
        {
          "indexed": true,
          "internalType": "address",
          "name": "user",
          "type": "address"
        },
        {
          "indexed": false,
          "internalType": "uint256",
          "name": "amount",
          "type": "uint256"
        }
      ],
      "name": "Withdrawn",
      "type": "event"
    },
    {
      "inputs": [],
      "name": "DEFAULT_ADMIN_ROLE",
      "outputs": [
        {
          "internalType": "bytes32",
          "name": "",
          "type": "bytes32"
        }
      ],
      "stateMutability": "view",
      "type": "function"
    },
    {
      "inputs": [],
      "name": "DEPOSITOR_ROLE",
      "outputs": [
        {
          "internalType": "bytes32",
          "name": "",
          "type": "bytes32"
        }
      ],
      "stateMutability": "view",
      "type": "function"
    },
    {
      "inputs": [],
      "name": "MAINTAINER_ROLE",
      "outputs": [
        {
          "internalType": "bytes32",
          "name": "",
          "type": "bytes32"
        }
      ],
      "stateMutability": "view",
      "type": "function"
    },
    {
      "inputs": [],
      "name": "POINTS_MULTIPLIER",
      "outputs": [
        {
          "internalType": "uint256",
          "name": "",
          "type": "uint256"
        }
      ],
      "stateMutability": "view",
      "type": "function"
    },
    {
      "inputs": [
        {
          "internalType": "address",
          "name": "",
          "type": "address"
        }
      ],
      "name": "balanceOf",
      "outputs": [
        {
          "internalType": "uint256",
          "name": "",
          "type": "uint256"
        }
      ],
      "stateMutability": "view",
      "type": "function"
    },
    {
      "inputs": [
        {
          "internalType": "uint256",
          "name": "amount",
          "type": "uint256"
        }
      ],
      "name": "depositRewards",
      "outputs": [],
      "stateMutability": "nonpayable",
      "type": "function"
    },
    {
      "inputs": [
        {
          "internalType": "address",
          "name": "account",
          "type": "address"
        }
      ],
      "name": "earned",
      "outputs": [
        {
          "internalType": "uint256",
          "name": "",
          "type": "uint256"
        }
      ],
      "stateMutability": "view",
      "type": "function"
    },
    {
      "inputs": [],
      "name": "exit",
      "outputs": [],
      "stateMutability": "nonpayable",
      "type": "function"
    },
    {
      "inputs": [],
      "name": "getReward",
      "outputs": [],
      "stateMutability": "nonpayable",
      "type": "function"
    },
    {
      "inputs": [
        {
          "internalType": "bytes32",
          "name": "role",
          "type": "bytes32"
        }
      ],
      "name": "getRoleAdmin",
      "outputs": [
        {
          "internalType": "bytes32",
          "name": "",
          "type": "bytes32"
        }
      ],
      "stateMutability": "view",
      "type": "function"
    },
    {
      "inputs": [
        {
          "internalType": "bytes32",
          "name": "role",
          "type": "bytes32"
        },
        {
          "internalType": "address",
          "name": "account",
          "type": "address"
        }
      ],
      "name": "grantRole",
      "outputs": [],
      "stateMutability": "nonpayable",
      "type": "function"
    },
    {
      "inputs": [
        {
          "internalType": "bytes32",
          "name": "role",
          "type": "bytes32"
        },
        {
          "internalType": "address",
          "name": "account",
          "type": "address"
        }
      ],
      "name": "hasRole",
      "outputs": [
        {
          "internalType": "bool",
          "name": "",
          "type": "bool"
        }
      ],
      "stateMutability": "view",
      "type": "function"
    },
    {
      "inputs": [],
      "name": "lastUpdateTime",
      "outputs": [
        {
          "internalType": "uint256",
          "name": "",
          "type": "uint256"
        }
      ],
      "stateMutability": "view",
      "type": "function"
    },
    {
      "inputs": [
        {
          "internalType": "uint256",
          "name": "reward",
          "type": "uint256"
        }
      ],
      "name": "notifyRewardAmount",
      "outputs": [],
      "stateMutability": "nonpayable",
      "type": "function"
    },
    {
      "inputs": [],
      "name": "pause",
      "outputs": [],
      "stateMutability": "nonpayable",
      "type": "function"
    },
    {
      "inputs": [],
      "name": "paused",
      "outputs": [
        {
          "internalType": "bool",
          "name": "",
          "type": "bool"
        }
      ],
      "stateMutability": "view",
      "type": "function"
    },
    {
      "inputs": [
        {
          "internalType": "bytes32",
          "name": "role",
          "type": "bytes32"
        },
        {
          "internalType": "address",
          "name": "callerConfirmation",
          "type": "address"
        }
      ],
      "name": "renounceRole",
      "outputs": [],
      "stateMutability": "nonpayable",
      "type": "function"
    },
    {
      "inputs": [
        {
          "internalType": "bytes32",
          "name": "role",
          "type": "bytes32"
        },
        {
          "internalType": "address",
          "name": "account",
          "type": "address"
        }
      ],
      "name": "revokeRole",
      "outputs": [],
      "stateMutability": "nonpayable",
      "type": "function"
    },
    {
      "inputs": [],
      "name": "rewardPerToken",
      "outputs": [
        {
          "internalType": "uint256",
          "name": "",
          "type": "uint256"
        }
      ],
      "stateMutability": "view",
      "type": "function"
    },
    {
      "inputs": [],
      "name": "rewardPerTokenStored",
      "outputs": [
        {
          "internalType": "uint256",
          "name": "",
          "type": "uint256"
        }
      ],
      "stateMutability": "view",
      "type": "function"
    },
    {
      "inputs": [],
      "name": "rewardRate",
      "outputs": [
        {
          "internalType": "uint256",
          "name": "",
          "type": "uint256"
        }
      ],
      "stateMutability": "view",
      "type": "function"
    },
    {
      "inputs": [
        {
          "internalType": "address",
          "name": "",
          "type": "address"
        }
      ],
      "name": "rewards",
      "outputs": [
        {
          "internalType": "uint256",
          "name": "",
          "type": "uint256"
        }
      ],
      "stateMutability": "view",
      "type": "function"
    },
    {
      "inputs": [
        {
          "internalType": "uint256",
          "name": "amount",
          "type": "uint256"
        }
      ],
      "name": "stake",
      "outputs": [],
      "stateMutability": "nonpayable",
      "type": "function"
    },
    {
      "inputs": [
        {
          "internalType": "address",
          "name": "",
          "type": "address"
        }
      ],
      "name": "stakingTime",
      "outputs": [
        {
          "internalType": "uint256",
          "name": "",
          "type": "uint256"
        }
      ],
      "stateMutability": "view",
      "type": "function"
    },
    {
      "inputs": [],
      "name": "stakingToken",
      "outputs": [
        {
          "internalType": "contract IERC20",
          "name": "",
          "type": "address"
        }
      ],
      "stateMutability": "view",
      "type": "function"
    },
    {
      "inputs": [
        {
          "internalType": "bytes4",
          "name": "interfaceId",
          "type": "bytes4"
        }
      ],
      "name": "supportsInterface",
      "outputs": [
        {
          "internalType": "bool",
          "name": "",
          "type": "bool"
        }
      ],
      "stateMutability": "view",
      "type": "function"
    },
    {
      "inputs": [],
      "name": "totalSupply",
      "outputs": [
        {
          "internalType": "uint256",
          "name": "",
          "type": "uint256"
        }
      ],
      "stateMutability": "view",
      "type": "function"
    },
    {
      "inputs": [],
      "name": "unpause",
      "outputs": [],
      "stateMutability": "nonpayable",
      "type": "function"
    },
    {
      "inputs": [
        {
          "internalType": "address",
          "name": "",
          "type": "address"
        }
      ],
      "name": "userPoints",
      "outputs": [
        {
          "internalType": "uint256",
          "name": "",
          "type": "uint256"
        }
      ],
      "stateMutability": "view",
      "type": "function"
    },
    {
      "inputs": [
        {
          "internalType": "address",
          "name": "",
          "type": "address"
        }
      ],
      "name": "userRewardPerTokenPaid",
      "outputs": [
        {
          "internalType": "uint256",
          "name": "",
          "type": "uint256"
        }
      ],
      "stateMutability": "view",
      "type": "function"
    },
    {
      "inputs": [
        {
          "internalType": "uint256",
          "name": "amount",
          "type": "uint256"
        }
      ],
      "name": "withdraw",
      "outputs": [],
      "stateMutability": "nonpayable",
      "type": "function"
    }
  ],
  "bytecode": "0x60a06040523480156200001157600080fd5b506040516200157638038062001576833981016040819052620000349162000190565b60016000818155815460ff19169091556001600160a01b0383166080526200005d9082620000c0565b506200008a7f339759585899103d2ace64958e37e18ccb0504652c81d4a1b8aa80fe2126ab9582620000c0565b50620000b77f8f4f2da22e8ac8f11e15f9fc141cddbb5deea8800186560abb6e68c5496619a982620000c0565b505050620001c8565b60008281526002602090815260408083206001600160a01b038516845290915281205460ff16620001695760008381526002602090815260408083206001600160a01b03861684529091529020805460ff19166001179055620001203390565b6001600160a01b0316826001600160a01b0316847f2f8788117e7eff1d82e926ec794901d17c78024a50270940304540a733656f0d60405160405180910390a45060016200016d565b5060005b92915050565b80516001600160a01b03811681146200018b57600080fd5b919050565b60008060408385031215620001a457600080fd5b620001af8362000173565b9150620001bf6020840162000173565b90509250929050565b608051611376620002006000396000818161032c0152818161068b0152818161096701528181610b340152610d1201526113766000f3fe608060405234801561001057600080fd5b50600436106101e45760003560e01c80637b0a47ee1161010f578063a694fc3a116100a2578063df136d6511610071578063df136d6514610432578063e9fad8ee1461043b578063f50ddbc714610443578063f87422541461046357600080fd5b8063a694fc3a146103fb578063c8f33c911461040e578063cd3daf9d14610417578063d547741f1461041f57600080fd5b80638f2203f6116100de5780638f2203f6146103aa57806391d14854146103b9578063a217fddf146103cc578063a3b0b5a3146103d457600080fd5b80637b0a47ee146103665780638456cb591461036f5780638b876347146103775780638bdf67f21461039757600080fd5b806336568abe11610187578063583d42fd11610156578063583d42fd146102dc5780635c975abb146102fc57806370a082311461030757806372f702f31461032757600080fd5b806336568abe146102a65780633c6b16ab146102b95780633d18b912146102cc5780633f4ba83a146102d457600080fd5b806318160ddd116101c357806318160ddd14610252578063248a9ca31461025b5780632e1a7d4d1461027e5780632f2ff15d1461029357600080fd5b80628cc262146101e957806301ffc9a71461020f5780630700037d14610232575b600080fd5b6101fc6101f73660046111ef565b61048a565b6040519081526020015b60405180910390f35b61022261021d366004611211565b610507565b6040519015158152602001610206565b6101fc6102403660046111ef565b60076020526000908152604090205481565b6101fc600b5481565b6101fc61026936600461123b565b60009081526002602052604090206001015490565b61029161028c36600461123b565b61053c565b005b6102916102a1366004611254565b610769565b6102916102b4366004611254565b610794565b6102916102c736600461123b565b6107cc565b6102916108bd565b610291610a34565b6101fc6102ea3660046111ef565b60096020526000908152604090205481565b60015460ff16610222565b6101fc6103153660046111ef565b60086020526000908152604090205481565b61034e7f000000000000000000000000000000000000000000000000000000000000000081565b6040516001600160a01b039091168152602001610206565b6101fc60035481565b610291610a66565b6101fc6103853660046111ef565b60066020526000908152604090205481565b6102916103a536600461123b565b610a98565b6101fc670de0b6b3a764000081565b6102226103c7366004611254565b610bc9565b6101fc600081565b6101fc7f8f4f2da22e8ac8f11e15f9fc141cddbb5deea8800186560abb6e68c5496619a981565b61029161040936600461123b565b610bf4565b6101fc60045481565b6101fc610dcd565b61029161042d366004611254565b610e2d565b6101fc60055481565b610291610e52565b6101fc6104513660046111ef565b600a6020526000908152604090205481565b6101fc7f339759585899103d2ace64958e37e18ccb0504652c81d4a1b8aa80fe2126ab9581565b6001600160a01b0381166000908152600760209081526040808320546006909252822054670de0b6b3a7640000906104c0610dcd565b6104ca9190611296565b6001600160a01b0385166000908152600860205260409020546104ed91906112a9565b6104f791906112c0565b61050191906112e2565b92915050565b60006001600160e01b03198216637965db0b60e01b148061050157506301ffc9a760e01b6001600160e01b0319831614610501565b610544610e73565b3361054d610dcd565b600555426004556001600160a01b038116156105985761056c8161048a565b6001600160a01b0382166000908152600760209081526040808320939093556005546006909152919020555b600082116105e15760405162461bcd60e51b8152602060048201526011602482015270043616e6e6f74207769746864726177203607c1b60448201526064015b60405180910390fd5b336000908152600860205260409020548211156106345760405162461bcd60e51b8152602060048201526011602482015270139bdd08195b9bdd59da081cdd185ad959607a1b60448201526064016105d8565b81600b60008282546106469190611296565b9091555050336000908152600860205260408120805484929061066a908490611296565b909155505060405163a9059cbb60e01b8152336004820152602481018390527f00000000000000000000000000000000000000000000000000000000000000006001600160a01b03169063a9059cbb906044016020604051808303816000875af11580156106dc573d6000803e3d6000fd5b505050506040513d601f19601f8201168201806040525081019061070091906112f5565b61071c5760405162461bcd60e51b81526004016105d890611317565b60405182815233907f7084f5476618d8e60b11ef0d7d3f06914655adb8793e28ff7f018d4c76d505d5906020015b60405180910390a261075b33610e9d565b506107666001600055565b50565b60008281526002602052604090206001015461078481610f50565b61078e8383610f5a565b50505050565b6001600160a01b03811633146107bd5760405163334bd91960e11b815260040160405180910390fd5b6107c78282610fee565b505050565b60006107d781610f50565b60006107e1610dcd565b600555426004556001600160a01b0381161561082c576108008161048a565b6001600160a01b0382166000908152600760209081526040808320939093556005546006909152919020555b6000831161087c5760405162461bcd60e51b815260206004820152601d60248201527f526577617264206d7573742062652067726561746572207468616e203000000060448201526064016105d8565b6003839055426004556040518381527fde88a922e0d3b88b24e9623efeb464919c6bf9f66857a65e2bfcf2ce87a9433d9060200160405180910390a1505050565b6108c5610e73565b336108ce610dcd565b600555426004556001600160a01b03811615610919576108ed8161048a565b6001600160a01b0382166000908152600760209081526040808320939093556005546006909152919020555b336000908152600760205260409020548015610a265733600081815260076020526040808220919091555163a9059cbb60e01b81526004810191909152602481018290526001600160a01b037f0000000000000000000000000000000000000000000000000000000000000000169063a9059cbb906044016020604051808303816000875af11580156109b0573d6000803e3d6000fd5b505050506040513d601f19601f820116820180604052508101906109d491906112f5565b6109f05760405162461bcd60e51b81526004016105d890611317565b60405181815233907fe2403640ba68fed3a2f88b7557551d1993f84b99bb10ff833f0cf8db0c5e04869060200160405180910390a25b5050610a326001600055565b565b7f339759585899103d2ace64958e37e18ccb0504652c81d4a1b8aa80fe2126ab95610a5e81610f50565b61076661105b565b7f339759585899103d2ace64958e37e18ccb0504652c81d4a1b8aa80fe2126ab95610a9081610f50565b6107666110ad565b7f8f4f2da22e8ac8f11e15f9fc141cddbb5deea8800186560abb6e68c5496619a9610ac281610f50565b60008211610b125760405162461bcd60e51b815260206004820152601d60248201527f416d6f756e74206d7573742062652067726561746572207468616e203000000060448201526064016105d8565b6040516323b872dd60e01b8152336004820152306024820152604481018390527f00000000000000000000000000000000000000000000000000000000000000006001600160a01b0316906323b872dd906064016020604051808303816000875af1158015610b85573d6000803e3d6000fd5b505050506040513d601f19601f82011682018060405250810190610ba991906112f5565b610bc55760405162461bcd60e51b81526004016105d890611317565b5050565b60009182526002602090815260408084206001600160a01b0393909316845291905290205460ff1690565b610bfc610e73565b610c046110e8565b33610c0d610dcd565b600555426004556001600160a01b03811615610c5857610c2c8161048a565b6001600160a01b0382166000908152600760209081526040808320939093556005546006909152919020555b60008211610c995760405162461bcd60e51b815260206004820152600e60248201526d043616e6e6f74207374616b6520360941b60448201526064016105d8565b81600b6000828254610cab91906112e2565b90915550503360009081526008602052604081208054849290610ccf9084906112e2565b90915550503360008181526009602052604090819020429055516323b872dd60e01b81526004810191909152306024820152604481018390526001600160a01b037f000000000000000000000000000000000000000000000000000000000000000016906323b872dd906064016020604051808303816000875af1158015610d5b573d6000803e3d6000fd5b505050506040513d601f19601f82011682018060405250810190610d7f91906112f5565b610d9b5760405162461bcd60e51b81526004016105d890611317565b60405182815233907f9e71bc8eea02a63969f509818f2dafb9254532904319f9dbda79b67bd34a5f3d9060200161074a565b6000600b54600003610de0575060055490565b600b54670de0b6b3a764000060035460045442610dfd9190611296565b610e0791906112a9565b610e1191906112a9565b610e1b91906112c0565b600554610e2891906112e2565b905090565b600082815260026020526040902060010154610e4881610f50565b61078e8383610fee565b33600090815260086020526040902054610e6b9061053c565b610a326108bd565b600260005403610e9657604051633ee5aeb560e01b815260040160405180910390fd5b6002600055565b6001600160a01b0381166000908152600860209081526040808320546009909252822054909190610ece9042611296565b90506000610ee7610ee262015180846112c0565b61110c565b610ef190846112a9565b6001600160a01b0385166000818152600a60205260409081902083905551919250907fa05f39e6d8d4e060324edb900f0f5909de621fd93f19ccf65ba74e5965c98c3690610f429084815260200190565b60405180910390a250505050565b610766813361117c565b6000610f668383610bc9565b610fe65760008381526002602090815260408083206001600160a01b03861684529091529020805460ff19166001179055610f9e3390565b6001600160a01b0316826001600160a01b0316847f2f8788117e7eff1d82e926ec794901d17c78024a50270940304540a733656f0d60405160405180910390a4506001610501565b506000610501565b6000610ffa8383610bc9565b15610fe65760008381526002602090815260408083206001600160a01b0386168085529252808320805460ff1916905551339286917ff6391f5c32d9c69d2a47ea670b442974b53935d1edc7fd64eb21e047a839171b9190a4506001610501565b6110636111b5565b6001805460ff191690557f5db9ee0a495bf2e6ff9c91a7834c1ba4fdd244a5e8aa4e537bd38aeae4b073aa335b6040516001600160a01b03909116815260200160405180910390a1565b6110b56110e8565b6001805460ff1916811790557f62e78cea01bee320cd4e420270b5ea74000d11b0c9f74754ebdbfc544b05a25833611090565b60015460ff1615610a325760405163d93c066560e01b815260040160405180910390fd5b6000600382111561116d57508060006111266002836112c0565b6111319060016112e2565b90505b818110156111675790508060028161114c81866112c0565b61115691906112e2565b61116091906112c0565b9050611134565b50919050565b8115611177575060015b919050565b6111868282610bc9565b610bc55760405163e2517d3f60e01b81526001600160a01b0382166004820152602481018390526044016105d8565b60015460ff16610a3257604051638dfc202b60e01b815260040160405180910390fd5b80356001600160a01b038116811461117757600080fd5b60006020828403121561120157600080fd5b61120a826111d8565b9392505050565b60006020828403121561122357600080fd5b81356001600160e01b03198116811461120a57600080fd5b60006020828403121561124d57600080fd5b5035919050565b6000806040838503121561126757600080fd5b82359150611277602084016111d8565b90509250929050565b634e487b7160e01b600052601160045260246000fd5b8181038181111561050157610501611280565b808202811582820484141761050157610501611280565b6000826112dd57634e487b7160e01b600052601260045260246000fd5b500490565b8082018082111561050157610501611280565b60006020828403121561130757600080fd5b8151801515811461120a57600080fd5b6020808252600f908201526e151c985b9cd9995c8819985a5b1959608a1b60408201526060019056fea2646970667358221220967b7daef1d55776d14afbf65aaaf1780bb27435664ba88be7ce0306b7adbc5a64736f6c63430008180033",
  "linkReferences": {},
  "deployedLinkReferences": {}
}